{
  "contractName": "Overflow",
  "abi": [
    {
      "inputs": [
        {
          "internalType": "uint256",
          "name": "_x",
          "type": "uint256"
        },
        {
          "internalType": "uint256",
          "name": "_y",
          "type": "uint256"
        }
      ],
      "stateMutability": "nonpayable",
      "type": "constructor"
    },
    {
      "inputs": [],
      "name": "stateAdd",
      "outputs": [
        {
          "internalType": "uint256",
          "name": "",
          "type": "uint256"
        }
      ],
      "stateMutability": "view",
      "type": "function"
    }
  ],
  "bytecode": "0x60c060405234801561001057600080fd5b5060405161028438038061028483398181016040528101906100329190610060565b81818060a09081525081608090815250505050506100bd565b60008151905061005a816100a6565b92915050565b6000806040838503121561007357600080fd5b60006100818582860161004b565b92505060206100928582860161004b565b9150509250929050565b6000819050919050565b6100af8161009c565b81146100ba57600080fd5b50565b60805160a0516101a46100e06000396000607601526000605501526101a46000f3fe608060405234801561001057600080fd5b506004361061002b5760003560e01c8063e1a6205514610030575b600080fd5b61003861004e565b60405161004591906100c4565b60405180910390f35b600061009a7f00000000000000000000000000000000000000000000000000000000000000007f000000000000000000000000000000000000000000000000000000000000000061009f565b905090565b600081836100ad91906100df565b905092915050565b6100be81610135565b82525050565b60006020820190506100d960008301846100b5565b92915050565b60006100ea82610135565b91506100f583610135565b9250827fffffffffffffffffffffffffffffffffffffffffffffffffffffffffffffffff0382111561012a5761012961013f565b5b828201905092915050565b6000819050919050565b7f4e487b7100000000000000000000000000000000000000000000000000000000600052601160045260246000fdfea264697066735822122028d25f6ff20b4c8f2ce3cd6cfb1e2653f048770a8048238c03b01a763d1d16ec64736f6c63430008000033",
  "immutableReferences": {
    "3": [
      {
        "length": 32,
        "start": 85
      }
    ],
    "5": [
      {
        "length": 32,
        "start": 118
      }
    ]
  },
  "source": "pragma solidity >=0.8.0;\n\ncontract Overflow {\n    uint256 immutable x;\n    uint256 immutable y;\n\n    function add(uint256 _x, uint256 _y) internal pure returns (uint256) {\n        return _x + _y;\n    }\n\n    constructor(uint256 _x, uint256 _y) {\n        (x, y) = (_x, _y);\n    }\n\n    function stateAdd() public view returns (uint256) {\n        return add(x, y);\n    }\n}\n",
  "sourcePath": "C:\\Users\\ramah\\personal-projects\\smt-sol\\contracts\\smtIntegerOverflow.sol",
  "compiler": {
    "name": "solc",
    "version": "0.8.0+commit.c7dfd78e.Emscripten.clang"
  },
  "schemaVersion": "3.4.3",
  "updatedAt": "2021-11-25T23:32:41.199Z",
  "devdoc": {
    "kind": "dev",
    "methods": {},
    "version": 1
  },
  "userdoc": {
    "kind": "user",
    "methods": {},
    "version": 1
  }
}