{
  "contractName": "Overflow",
  "abi": [
    {
      "inputs": [
        {
          "internalType": "uint256",
          "name": "value",
          "type": "uint256"
        }
      ],
      "name": "add",
      "outputs": [
        {
          "internalType": "bool",
          "name": "",
          "type": "bool"
        }
      ],
      "stateMutability": "nonpayable",
      "type": "function"
    },
    {
      "inputs": [
        {
          "internalType": "uint256",
          "name": "value",
          "type": "uint256"
        }
      ],
      "name": "safe_add",
      "outputs": [
        {
          "internalType": "bool",
          "name": "",
          "type": "bool"
        }
      ],
      "stateMutability": "nonpayable",
      "type": "function"
    }
  ],
  "bytecode": "0x60806040526000805534801561001457600080fd5b50610244806100246000396000f3fe608060405234801561001057600080fd5b50600436106100365760003560e01c80631003e2d21461003b5780633e127e761461006b575b600080fd5b61005560048036038101906100509190610109565b61009b565b6040516100629190610141565b60405180910390f35b61008560048036038101906100809190610109565b6100ba565b6040516100929190610141565b60405180910390f35b6000816000808282546100ae919061015c565b92505081905550919050565b60008054600054836100cc919061015c565b10156100d757600080fd5b816000808282546100e8919061015c565b92505081905550919050565b600081359050610103816101f7565b92915050565b60006020828403121561011b57600080fd5b6000610129848285016100f4565b91505092915050565b61013b816101b2565b82525050565b60006020820190506101566000830184610132565b92915050565b6000610167826101be565b9150610172836101be565b9250827fffffffffffffffffffffffffffffffffffffffffffffffffffffffffffffffff038211156101a7576101a66101c8565b5b828201905092915050565b60008115159050919050565b6000819050919050565b7f4e487b7100000000000000000000000000000000000000000000000000000000600052601160045260246000fd5b610200816101be565b811461020b57600080fd5b5056fea26469706673582212204de0a758290b912489ba9f1db8bc66ba0a51f23695df5910f46697847cd2e7ab64736f6c63430008000033",
  "immutableReferences": {},
  "source": "pragma solidity >=0.8.0;\n\npragma experimental SMTChecker;\n\ncontract Overflow {\n    uint256 private sellerBalance = 0;\n\n    function add(uint256 value) public returns (bool) {\n        sellerBalance += value; // possible overflow\n\n        // possible auditor assert\n        // assert(sellerBalance >= value);\n    }\n\n    function safe_add(uint256 value) public returns (bool) {\n        require(value + sellerBalance >= sellerBalance);\n        sellerBalance += value;\n    }\n}\n",
  "sourcePath": "C:\\Users\\ramah\\personal-projects\\smt-sol\\contracts\\smtIntegerOverflow.sol",
  "compiler": {
    "name": "solc",
    "version": "0.8.0+commit.c7dfd78e.Emscripten.clang"
  },
  "schemaVersion": "3.4.3",
  "updatedAt": "2021-11-26T00:05:08.106Z",
  "devdoc": {
    "kind": "dev",
    "methods": {},
    "version": 1
  },
  "userdoc": {
    "kind": "user",
    "methods": {},
    "version": 1
  }
}