{
  "contractName": "Reentrance",
  "abi": [
    {
      "constant": false,
      "inputs": [
        {
          "name": "u",
          "type": "address"
        }
      ],
      "name": "getBalance",
      "outputs": [
        {
          "name": "",
          "type": "uint256"
        }
      ],
      "payable": false,
      "stateMutability": "nonpayable",
      "type": "function"
    },
    {
      "constant": false,
      "inputs": [],
      "name": "addToBalance",
      "outputs": [],
      "payable": true,
      "stateMutability": "payable",
      "type": "function"
    },
    {
      "constant": false,
      "inputs": [],
      "name": "withdrawBalance",
      "outputs": [],
      "payable": false,
      "stateMutability": "nonpayable",
      "type": "function"
    },
    {
      "constant": false,
      "inputs": [],
      "name": "withdrawBalance_fixed",
      "outputs": [],
      "payable": false,
      "stateMutability": "nonpayable",
      "type": "function"
    },
    {
      "constant": false,
      "inputs": [],
      "name": "withdrawBalance_fixed_2",
      "outputs": [],
      "payable": false,
      "stateMutability": "nonpayable",
      "type": "function"
    }
  ],
  "bytecode": "0x608060405234801561001057600080fd5b50610487806100206000396000f3fe60806040526004361061004a5760003560e01c80631b0ca26a1461004f5780635fd8c71014610066578063c0e317fb1461007d578063c6dd98e914610087578063f8b2cb4f1461009e575b600080fd5b34801561005b57600080fd5b50610064610103565b005b34801561007257600080fd5b5061007b610202565b005b6100856102fa565b005b34801561009357600080fd5b5061009c610348565b005b3480156100aa57600080fd5b506100ed600480360360208110156100c157600080fd5b81019080803573ffffffffffffffffffffffffffffffffffffffff169060200190929190505050610413565b6040518082815260200191505060405180910390f35b60008060003373ffffffffffffffffffffffffffffffffffffffff1673ffffffffffffffffffffffffffffffffffffffff16815260200190815260200160002054905060008060003373ffffffffffffffffffffffffffffffffffffffff1673ffffffffffffffffffffffffffffffffffffffff1681526020019081526020016000208190555060003373ffffffffffffffffffffffffffffffffffffffff168260405180600001905060006040518083038185875af1925050503d80600081146101ea576040519150601f19603f3d011682016040523d82523d6000602084013e6101ef565b606091505b5050905080156101fe57600080fd5b5050565b60003373ffffffffffffffffffffffffffffffffffffffff166000803373ffffffffffffffffffffffffffffffffffffffff1673ffffffffffffffffffffffffffffffffffffffff1681526020019081526020016000205460405180600001905060006040518083038185875af1925050503d80600081146102a0576040519150601f19603f3d011682016040523d82523d6000602084013e6102a5565b606091505b50509050806102b357600080fd5b60008060003373ffffffffffffffffffffffffffffffffffffffff1673ffffffffffffffffffffffffffffffffffffffff1681526020019081526020016000208190555050565b346000803373ffffffffffffffffffffffffffffffffffffffff1673ffffffffffffffffffffffffffffffffffffffff16815260200190815260200160002060008282540192505081905550565b3373ffffffffffffffffffffffffffffffffffffffff166108fc6000803373ffffffffffffffffffffffffffffffffffffffff1673ffffffffffffffffffffffffffffffffffffffff168152602001908152602001600020549081150290604051600060405180830381858888f193505050501580156103cc573d6000803e3d6000fd5b5060008060003373ffffffffffffffffffffffffffffffffffffffff1673ffffffffffffffffffffffffffffffffffffffff16815260200190815260200160002081905550565b60008060008373ffffffffffffffffffffffffffffffffffffffff1673ffffffffffffffffffffffffffffffffffffffff16815260200190815260200160002054905091905056fea165627a7a72305820ccbee87a1bbaebb310e7eb5a6d453c621c3fdc99436c7b85af92754dfce4a7f30029",
  "source": "pragma solidity ^0.5.7;\n\ncontract Reentrance {\n    mapping(address => uint256) userBalance;\n\n    function getBalance(address u) public returns (uint256) {\n        return userBalance[u];\n    }\n\n    function addToBalance() public payable {\n        userBalance[msg.sender] += msg.value;\n    }\n\n    function withdrawBalance() public {\n        // send userBalance[msg.sender] ethers to msg.sender\n        // if mgs.sender is a contract, it will call its fallback function\n        (bool success, ) = msg.sender.call.value(userBalance[msg.sender])(\"\");\n        require(success);\n        userBalance[msg.sender] = 0;\n    }\n\n    function withdrawBalance_fixed() public {\n        // to protect against re-entrancy, the state variable\n        // has to be change before the call\n        uint256 amount = userBalance[msg.sender];\n        userBalance[msg.sender] = 0;\n        (bool success, ) = msg.sender.call.value(amount)(\"\");\n        require(!success);\n    }\n\n    function withdrawBalance_fixed_2() public {\n        // send() and transfer() are safe against reentrancy\n        // they do not transfer the remaining gas\n        // and they give just enough gas to execute few instructions\n        // in the fallback function (no further call possible)\n        msg.sender.transfer(userBalance[msg.sender]);\n        userBalance[msg.sender] = 0;\n    }\n}\n",
  "sourcePath": "C:\\Users\\ramah\\personal-projects\\smt-sol\\contracts\\smtIntegerOverflow.sol",
  "compiler": {
    "name": "solc",
    "version": "0.5.7+commit.6da8b019.Emscripten.clang"
  },
  "schemaVersion": "3.4.3",
  "updatedAt": "2021-11-26T07:15:32.925Z",
  "devdoc": {
    "methods": {}
  },
  "userdoc": {
    "methods": {}
  }
}